:100000000C9451000C9479000C9479000C947900B4
:100010000C9479000C9479000C9479000C9479007C
:100020000C9479000C9479000C9479000C9479006C
:100030000C9479000C9479000C9479000C9479005C
:100040000C9479000C9479000C9479000C9479004C
:100050000C9479000C9479000C9479000C9479003C
:100060000C9479000C9479000C9479000C9479002C
:100070000C9479000C9479000C9479000C9479001C
:100080000C9479000C9479000C9479000C9479000C
:100090000C94D10A0C945B0B0C94350B0C947900E6
:1000A000A40B11241FBECFEFCDBFDFE3DEBF19E2EB
:1000B000A0E0B8E2E7E1FBE302C005900D92A030BA
:1000C000B107D9F72BE2A0E0B9E201C01D92A63D2D
:1000D000B207E1F710E0C1E5D0E004C02197FE01CE
:1000E0000E94C719C035D107C9F70E940E0C0C94A5
:1000F000B51C0C940000CF93DF9324E6629FB001FF
:100100001124E82FE69FC001E79F900D112468EEAF
:1001100073E00E943C196A30E8F4660F771FFB0118
:10012000E151F648C081D1816F507648FB012081B2
:1001300031812C1B3D0BDC010E94A51928EE33E018
:1001400040E050E00E946419CE01820F931FDF91BE
:10015000CF91089580E197E2FACF80911228909193
:100160001328892BE1F480910D28811118C080910A
:100170000A28823089F090910B28992381F08130F0
:1001800029F48091F8289091F92808956091092820
:10019000809108280C947B0080E197E2089590E01C
:1001A00080E00895CF92DF92EF92FF928091A52890
:1001B00090E0409110285091112820911228309100
:1001C0001328FC0163E0EE0FFF1F6A95E1F7E85F7B
:1001D000F74DC0902028D0902128E0902228F09060
:1001E0002328C48ED58EE68EF78EDC0173E0AA0F2D
:1001F000BB1F7A95E1F7A85DB74D4D935C9322A3A1
:1002000033A301968F7099278093A5288091A42805
:10021000803118F48F5F8093A428FF90EF90DF90D7
:10022000CF900895CF92DF92FF920F931F93CF93B9
:10023000DF93F0900F28F09209280091FA2810918E
:10024000FB28D1E0CC24CA94DC2CC1E06F2D8C2F8C
:100250000E947B0080179107D8F49801281B390B66
:10026000C901C816D90610F06C01DC2FCF5FCB3066
:1002700069F7D093082810920A2881E080931E28FD
:10028000DF91CF911F910F91FF90DF90CF90089554
:10029000801B910BE6CF4F925F926F927F92AF924D
:1002A000BF92CF92DF92EF92FF920F931F93CF9363
:1002B000DF93E4E1F8E2119228E2EE31F207D9F798
:1002C0004090202850902128609022287090232868
:1002D0008091F0289091F128A091F228B091F32814
:1002E000A3019201281B390B4A0B5B0BCA01B90110
:1002F00028E532E040E050E00E94641969017A018B
:1003000081E0C822DD24EE24FF2400911228109100
:1003100013280115110509F4A7C0A0901028B0906A
:1003200011288091A628823009F09BC0C091B42882
:10033000CC2309F497C0E091BD28C091BE28E111FB
:100340004AC0C11148C0A114B10409F444C080914D
:10035000D4289091D528A091D628B091D728A30170
:100360009201281B390B4A0B5B0BCA01B901643996
:1003700031E173078105910570F5683B4BE0740727
:100380008105910518F12AEF30E040E050E00E942D
:100390006419E4E1F8E28AE092E020FD91E09193B3
:1003A00081502F5F3F4F4F4F5F4F8111F5CFDF914E
:1003B000CF911F910F91FF90EF90DF90CF90BF9062
:1003C000AF907F906F905F904F90089528E532E056
:1003D00040E050E0DCCFCC2309F444C0E11141C03F
:1003E0008091D4289091D528A091D628B091D72873
:1003F000A3019201281B390B4A0B5B0BCA01B901FF
:100400002CE231E040E050E00E946419E8E0F8E2BC
:1004100090E080E0D2E061E070E0821708F4D487D9
:10042000AB01082E02C0440F551F0A94E2F7D80111
:10043000A423B523AB2B79F0C1110BC030E0C1145C
:10044000D104E104F10431F44A215B2132E0452B6F
:1004500009F431E03487019631968A309105E9F646
:10046000A6CFC0E020E0D2CF80910E28882399F05B
:100470008091C728843078F4E4E1F8E28091C728BD
:10048000823038F482E0819338E2EE31F307B1F73D
:100490008ECF81E0F8CF80910A28813061F4CD2899
:1004A000CE28CF2809F082E0E0910F28F0E0E85F45
:1004B000F74D838735C0823079F010910828A4E188
:1004C000AA2EA8E2BA2EF50100E082E0101709F486
:1004D0006DC081930F5FFACFE4E1F8E281E0819390
:1004E00048E2EE31F407D9F7C301B2012CE830E05D
:1004F00040E050E00E946419CA01B90125E030E0F3
:1005000040E050E00E946419FB01E85FF74D22E0F3
:10051000218BE4E0F0E0E61BF70BE85FF74D248762
:100520008091A628813009F042CF8091B428882399
:1005300009F43DCF8091BD28811139CF8091BE282B
:10054000882309F434CF609120287091212880916C
:10055000222890912328645F7140810991090091BC
:10056000D4281091D5282091D6283091D728601B07
:10057000710B820B930B683EF3E07F0781059105B9
:1005800008F015CF28EC30E040E050E00E946419FC
:100590002F5FE8E0F8E2A4E1B8E280E092E0958B1A
:1005A0009D938F5F31978217D0F301CFC0910928B7
:1005B00080910B28882379F16C2F812F0E947B007A
:1005C000AC018091B928882309F4AACF41155105BF
:1005D00009F4A6CFA091BA28B091BB28212F30E012
:1005E0000E94A5199A0136952795620F731F811DE8
:1005F000911D9A0150E040E00E946419121708F41E
:10060000212F80E091E0821709F48ACFF5019193C0
:100610005F018F5FF8CF80910D28811141C08091DB
:10062000B9288823E9F14091FC285091FD28411513
:100630005105B1F1A091BA28B091BB28A333B105FF
:1006400078F11091FE28212F30E00E94A5199A011F
:1006500036952795620F731F811D911D9A0150E0F9
:1006600040E00E946419812F90E0B0E0A0E02817DC
:1006700039074A075B0710F4DA01C90120E031E0CD
:10068000422F50E070E060E0481759076A077B0787
:1006900038F4E22FF0E0E85FF74D34872F5FF0CFBA
:1006A00081E0CD28CE28CF2821F080E00C1708F07B
:1006B00082E0EC2FFBCEFC0126E18FEF9FEF215073
:1006C00089F03191AC01432738E0CA0196958795AE
:1006D00040FF04C041E0842740EA94273150AC0138
:1006E000A1F7EDCF0895CF93DF9390E0FC01EB529B
:1006F000F64820812F3F89F06330710570F4FC01CA
:10070000E554F648A08130E2A39FD0011124BC5FDC
:100710006130710529F411962C93DF91CF910895E2
:100720008F559648EC01E881EF3F89F0CD01409666
:10073000E80FF92FF11D9FB7F89412962C93808142
:100740006230710539F4886080839FBFE6CFF0E0A6
:10075000E0E0F1CF877FF8CF282F30E0F901E957AB
:10076000F648E081EE2309F1E13021F0F0F0E630C7
:1007700098F008954091010A2F553648F9012081DB
:100780002C5F81E090E001C0880F2A95EAF7809500
:1007900084238093010A089580E1E89FF0011124E9
:1007A000E05AF54F81818F7E81830895FF920F93E8
:1007B0001F93CF93DF93082F10E0F801EB52F64818
:1007C000F0809FEFF916A1F0EB018B3210F40E943C
:1007D000AC03F801E554F648E08180E2E89FF001BF
:1007E0001124FC5F80818F2159F0CD2B39F4F682E2
:1007F000DF91CF911F910F91FF900895F582F8CF6F
:10080000D801AF55B6488C91309771F08F3F61F0A9
:100810007096E80FF11D9FB7F8948081CD2B39F4C5
:10082000877F80839FBFE4CFF0E0E0E0F4CF886073
:10083000F8CF0F931F93CF93082F10E0F801EB52DE
:10084000F648C081CF3FA9F00E94AC03F801E554FF
:10085000F648E08180E2E89FF0011124FC5F80858A
:10086000C82381E090E009F480E0CF911F910F91BF
:10087000089580E090E0F9CFCF93DF938FB7F8949D
:100880002091D12A3091D22A4091D32A5091D42A52
:10089000E091BA0A9091B60A90FF06C02F5F3F4FD1
:1008A0004F4F5F4FE091BA0A8FBFA091CF2AB0910E
:1008B000D02AC091CD2AD091CE2A0E94B419EC9FA3
:1008C0009001ED9F300D1124620F731F811D911D4A
:1008D000DF91CF9108952FB7F8946091C92A709154
:1008E000CA2A8091CB2A9091CC2A2FBF0895AF922B
:1008F000BF92CF92DF92EF92FF920F931F93CF930D
:10090000DF936C017B018B01040F151FEB015E016E
:10091000AE18BF08C017D10759F06991D601ED9103
:10092000FC910190F081E02DC6010995892B79F7A2
:10093000C501DF91CF911F910F91FF90EF90DF9054
:10094000CF90BF90AF900895FC0154894589252F21
:1009500030E0842F90E0821B930B541710F0CF9659
:10096000089501970895FC0192898389981761F091
:10097000A389AE0FBF2FB11D59968C9193899F5FAC
:100980009F73938B90E008958FEF9FEF0895FC0184
:1009900092898389981731F08389E80FF11D818D41
:1009A00090E008958FEF9FEF0895FC0192892389CD
:1009B000892F90E0805C9F4F821B91098F7399274C
:1009C0000895CF93DF93EC01E881F9810680F781E8
:1009D000E02D0995EC85FD8586818F738683EC85F6
:1009E000FD8585818F7585838B898A8B198ADF9137
:1009F000CF910895CF92DF92EF92FF920F931F93C2
:100A0000CF93DF93EC016A017B01022F8989882350
:100A100039F0E881F9810288F389E02DCE0109954A
:100A200098898091E205892B8093E2051FB7F8949D
:100A300060E070E281EA97E0A70196010E946419E4
:100A400069017A018FEFC81AD80AE80AF80AF69401
:100A5000E794D794C794EC85FD8586818D7F868346
:100A6000EC85FD8586818683198AA09123110A2E43
:100A7000000CBB0BA70196010E94BF1920E034E0D7
:100A800040E050E00E948619EC85FD85C20ED31E21
:100A9000E41EF51EC086D186EC85FD850783EC85B6
:100AA000FD858681806C8683EC85FD8585818068E7
:100AB00085838E858B3220F462E070E00E947303A0
:100AC0008F858B3220F461E070E00E94D6038F8521
:100AD0008B3220F461E070E00E9473031FBFDF914E
:100AE000CF911F910F91FF90EF90DF90CF900895DD
:100AF000CF93DF93FC0194898589C485D5859813AC
:100B000006C08D818F7D8D83DF91CF910895A5895A
:100B1000AE0FBF2FB11DA75ABF4F2C91858990E012
:100B200001968F739927858B80E48C83A485B58586
:100B300012962C93948985899813E6CFA485B58560
:100B400015968C9115978F7D15968C9387898823A0
:100B5000D9F2808D80931301178AD6CFDC011C96C1
:100B6000ED91FC910FB607FE03C0258125FD04C061
:100B7000248125FD0C9478050895EF92FF920F9340
:100B80001F93CF93DF93EC0181E0898B9C898D8942
:100B900098131CC0AC85BD8514968C91149785FF65
:100BA00015C012966C93AC85BD8580E414968C9329
:100BB000EC85FD8585818F7D858381E090E0DF91E7
:100BC000CF911F910F91FF90EF90089580911101A7
:100BD00080FF08C080911301888F8E898093130154
:100BE00081E08F8BF62E0C8910E00F5F1F4F0F7383
:100BF0001127E02E8D898E1104C0CE010E94AE0512
:100C0000F9CFEC89EC0FFD2FF11DE75AFF4FF08271
:100C10000C8BEC85FD8585818062CECFCF93DF93F1
:100C2000FC0121892223C9F0EC018091110180FF90
:100C300008C080911301808F86898093130181E021
:100C4000878BEC85FD85858185FD03C0848186FDCC
:100C500004C0CE010E94AE05F4CFDF91CF9108957C
:100C600081E008958BE090E00197F1F7089582E12B
:100C70000E94190421E0019709F020E0822F0895D5
:100C8000CF93C82F70E060E083E10E94D6036C2F01
:100C900070E083E1CF910C947303CF93C82F70E081
:100CA00060E082E10E94D6036C2F70E082E1CF9178
:100CB0000C9473030F931F93CF93DF93EC010E9467
:100CC0003C040A811B812C813D81601B710B820BCE
:100CD000930B60327E448105910510F081E08E8394
:100CE0008E81DF91CF911F910F910895CF93DF9364
:100CF000EC0180E00E94400683E10E941904019704
:100D000039F0CE010E945A068823B1F380E007C073
:100D10000E943206CE010E945A0691E08927DF9197
:100D2000CF9108950F931F93CF93DF938C01D62F0C
:100D3000C8E08D2F8095881F8827881F0E944D0648
:100D40000E943206C8010E947606811107C0C0E0E9
:100D50008C2FDF91CF911F910F91089581E00E9418
:100D60004006DD0FC15029F780E00E944D060E9429
:100D70003206C8010E947606C82F882341F30E94DC
:100D80003706D82F81E00E944006DD2309F381E079
:100D9000F8018683DCCF0F931F93CF938C0180E003
:100DA0000E944D06C8010E947606811109C081E0AB
:100DB000F8018683C0E08C2FCF911F910F91089589
:100DC0000E943706C82F882391F381E00E944D06C8
:100DD0000E94320681E00E944006EDCF1F93CF9320
:100DE000DF93EC0181E00E944D060E943206CE01A5
:100DF0000E947606182F80E00E944D060E9432065F
:100E0000112319F0CE010E945A0680E00E944D067F
:100E100080E0DF91CF911F910C944006BF92CF925A
:100E2000DF92EF92FF920F931F93CF93DF938C018A
:100E3000F62ED42FB52ED22E0E943C04F8016283E8
:100E40007383848395831682C8010E94CB06C82FC2
:100E5000882331F06F2D660FC8010E949206C82FBB
:100E6000CD2EED2EFB2CCC2361F08E2D8C198D1503
:100E700040F4F70161917F01C8010E949206C82FDA
:100E8000F2CFC8010E94EE06CC2321F0F801C68102
:100E900081E0C8278C2FDF91CF911F910F91FF9098
:100EA000EF90DF90CF90BF9008956F927F928F92D6
:100EB0009F92AF92BF92CF92DF92EF92FF920F93E9
:100EC0001F93CF93DF937C01D62F942E152F5901BA
:100ED00028E0FC01808191810E940E07882309F49B
:100EE00085C08BE99FE00197F1F7F701E080F18081
:100EF0000E943C04F7016283738384839583168286
:100F0000C7010E94CB06C82F882339F06D2F660FCA
:100F10006160C7010E949206C82F7A2C6501812C5E
:100F2000CC23E9F1F8E08F16D1F1F601108280E0D0
:100F30000E944D0698E0692E0E943206C7010E9469
:100F40007606811106C0C0E083948FEFC81AD80AD4
:100F5000E7CFF601C081D0E0CC0FDD1F0E9437063D
:100F60008C2BF601808381E00E9440066A94611018
:100F7000E3CF81E0F7E08F1201C080E00E944D06D0
:100F80000E943206C7010E947606C82F8823D9F234
:100F900081E00E94400680E00E944D06D5CFC70147
:100FA0000E94EE06CC2311F1F701868181111EC04B
:100FB000F50180818534D1F0A92DB12F91918D91CA
:100FC000981314C08E2F87198017C0F38C2FDF91D0
:100FD000CF911F910F91FF90EF90DF90CF90BF9036
:100FE000AF909F908F907F906F900895C0E0EECF6C
:100FF0000F93CF93DF93CDB7DEB76097CDBFDEBF42
:10100000FE01339696E0DF011D929A95E9F798EC80
:10101000998395E598876A834C832D8303E09E012D
:10102000275F3F4FAE014F5F5F4F682F8CEC9BE215
:101030000E9455076096CDBFDEBFDF91CF910F9123
:101040000895EF92FF920F93CF93DF93CDB7DEB762
:101050006097CDBFDEBF7A0191E899839FEF9B83B4
:101060009C8395E59D839E839F8398876A8302E096
:101070009E01275F3F4FAE014F5F5F4F682F8CECA3
:101080009BE20E945507882329F02B853C85F701B8
:10109000208331836096CDBFDEBFDF91CF910F916A
:1010A000FF90EF9008950F93CF93DF93CDB7DEB706
:1010B0006097CDBFDEBFFC01962F66956695605D9B
:1010C000660F9370990F81E0890F4423E9F02FEFA9
:1010D0003FEF1B861C8642E8498745E5488B8A8797
:1010E0009D872E873F8702E09E012F5F3F4FAE0115
:1010F000475F5F4FCF010E9455076096CDBFDEBFAF
:10110000DF91CF910F91089530E03195219531090C
:10111000482F892F942FDDCF2F923F924F925F92CD
:101120006F927F928F929F92AF92BF92CF92DF92F7
:10113000EF92FF920F931F93CF93DF93CDB7DEB75C
:10114000A297CDBFDEBF0E943C046093D12B709369
:10115000D22B8093D32B9093D42B1092D52B80E05D
:101160000E944D0619E00E94370681110DC081E0F2
:101170000E9440060E9432068FEC9BE20E94760697
:10118000882311F0115079F78FEC9BE20E94EE0654
:101190005090D52B5520C1F0512C852DA296CDBF56
:1011A000DEBFDF91CF911F910F91FF90EF90DF9005
:1011B000CF90BF90AF909F908F907F906F905F90F7
:1011C0004F903F902F9008950E943706882321F377
:1011D00083E10E9419040197F9F681E0898384E094
:1011E0008A8322E0AE014F5F5F4F68E58091CC2B90
:1011F0009091CD2B0E940E07882371F282E08983A3
:1012000083E38A838B8323E0AE014F5F5F4F68E502
:101210008091CC2B9091CD2B0E940E07882309F44E
:10122000BBCF10920528109206280E946B04609391
:101230009A2A70939B2A80939C2A90939D2A81EBF3
:10124000882E8AE2982E88EA9AE289A39AA390E0EF
:10125000E92E99E2F92E2FE4A22E29E2B22E10E611
:101260003E019BE0690E711C32E0332E22242A9449
:101270006501412C88E0EEE6F9E7DE011196019068
:101280000D928A95E1F701E09E01275E3F4FAE0186
:101290004F5F5F4F642D610F8CEC9BE20E945507FE
:1012A000882309F47ACF8B8D803309F076CF8C8D2B
:1012B000883309F072CF8D8D823409F06ECFFE0134
:1012C0007A9690E080E02191D601A80FB91F2C9367
:1012D000019687309105B9F7F6011782F8E0CF0E35
:1012E000D11C21E0421298C000E020E040E0602FD5
:1012F000812F0E94F807882309F44FCF0F5F083031
:10130000A1F7DD24D394D10EF30126E011922A95A2
:10131000E9F788EC89873B8681E08A871D821E82F7
:101320001F82188699EC99833B82E0E1EC83F0E818
:10133000FE832F828A8303E09E012F5E3F4FAE0122
:10134000475F5F4F6D2D8CEC9BE20E945507882311
:1013500009F423CF9E012F5E3F4FAE014F5F5F4FD9
:101360006D2D8CEC9BE20E945507882309F415CF64
:1013700020E040E060E08D2D0E94F807882309F40A
:101380000CCF20E040E066E08D2D0E94F807882316
:1013900009F403CF20E041E062E08D2D0E94F807C0
:1013A000882309F4FACE21E042E065E08D2D0E9409
:1013B000F807882309F4F1CE21E042E067E08D2DA3
:1013C0000E94F807082F882309F4E7CEF401119250
:1013D0004F01E9A1FAA11192E9A3FAA3F70110863E
:1013E000118AF2E1EF0EF11C1E5F20E1A20EB11C8A
:1013F000163609F03DCF0E946B04EAE9FBE2A4EA4D
:10140000BBE211926D937D938D939D932BE2E43A11
:10141000F207B9F7502EC1CE442443942BCFDC0100
:10142000ED91FC910088F189E02D23E030E00994F2
:10143000EFEEF9E765E07AE78FEF9FEF21913191C9
:10144000822748E0DC01A170BB2796958795AB2BDE
:10145000A1F44150B9F7232F33278227932728E09F
:10146000AC014170552796958795452B59F421502D
:10147000B9F76E177F0711F7089551E0852750EAF5
:101480009527E7CF31E0832730EA9327F0CFEF921B
:10149000FF920F931F93CF93DF93EC018881853ADE
:1014A00009F063C08981813009F05FC08A8182358B
:1014B00009F05BC08B81873509F057C08885815062
:1014C0008A3008F052C0898581508A3008F04DC0BA
:1014D0008B010E94180A2E853F852817390709F0CD
:1014E00044C0CE0101960E945B032E893F8982177A
:1014F0009307D9F5F80110821182128213827E01BE
:10150000F4E0EF0EF11C30E020E0F70181917F0163
:1015100090E0B0E0A0E0022E04C0880F991FAA1F3F
:10152000BB1F0A94D2F7F801408151816281738117
:10153000842B952BA62BB72B80839183A283B38317
:10154000285F3F4F2032310501F7888584838985E4
:1015500085838A859B85868397832C8520879C013C
:1015600022703D7F81E0232B09F080E0DF91CF9155
:101570001F910F91FF90EF9008951F93CF93DF93EA
:10158000EC01162F0E942019181739F0612FCE0197
:10159000DF91CF911F910C942819DF91CF911F916A
:1015A00008951F920F920FB60F9211242F933F931D
:1015B0004F935F936F937F938F939F93AF93BF935B
:1015C0004091C92A5091CA2A6091CB2A7091CC2AA5
:1015D0008091C72A9091C82A2091C52A3091C62AA5
:1015E000420F531F611D711D2091C32A3091C42ADF
:1015F000820F931F883E23E0920730F0885E93406D
:101600004F5F5F4F6F4F7F4F8093C72A9093C82AD9
:101610004093C92A5093CA2A6093CB2A7093CC2A4C
:101620008091D12A9091D22AA091D32AB091D42A24
:101630000196A11DB11D8093D12A9093D22AA09327
:10164000D32AB093D42A81E08093B60ABF91AF9198
:101650009F918F917F916F915F914F913F912F91CA
:101660000F900FBE0F901F9018951F920F920FB6FC
:101670000F9211242F933F934F935F936F937F9318
:101680008F939F93AF93BF93EF93FF9385ED9AE270
:101690000E947805FF91EF91BF91AF919F918F913B
:1016A0007F916F915F914F913F912F910F900FBE5E
:1016B0000F901F9018951F920F920FB60F92112442
:1016C0002F933F934F935F936F937F938F939F934A
:1016D000AF93BF93EF93FF93E091E12AF091E22A59
:1016E000818181FD2FC060818091E72A8F5F8F7398
:1016F0009091E82A891741F0E091E72AF0E0EB5257
:10170000F54D618F8093E72A80916E2B90916F2B1E
:10171000009739F0DC01ED91FC910190F081E02D12
:101720000995FF91EF91BF91AF919F918F917F911B
:101730006F915F914F913F912F910F900FBE0F903E
:101740001F9018958081EDCFCF93DF93E5EDFAE2FE
:101750001282138288EE93E0A0E0B0E08483958348
:10176000A683B78389E09AE78083918380E698E037
:101770008487958798E1968789E1878780E4808BC5
:10178000128A138A148A158A86E2868B178A108E2B
:1017900010926E2B10926F2BEFECFBE22EEC3BE2E3
:1017A0002083318312821382148215821682E09381
:1017B000CC2BF093CD2B2CEC3BE22093982B309349
:1017C000992B8AE0EAE9FBE2DF01C82F1D92CA9556
:1017D000E9F7E4EAFBE228E2DF011D922A95E9F746
:1017E000E1E7FBE220E73BE22083318321E0228333
:1017F00013821482A6E7BBE2ED0119929A95E9F7EC
:10180000158E168E178E10A211A294E092A383A3B8
:1018100014A215A216A2DF91CF910895CF93DF9362
:10182000CDB7DEB7CA57D109CDBFDEBF88ED90E096
:1018300084BF9093610080E094E2A4EFB0E08093D5
:10184000002890930128A0930228B0930328809148
:101850000206866080930206809100068160809374
:101860000006809102068F7C809302068091A00082
:101870008F788093A0008091020680618093020699
:101880001092E20581E08093E40583E08093010AF1
:101890008FEF90E08093260A9093270A80E890E0EB
:1018A0008093380A9093390A80933A0A90933B0ABE
:1018B00080933C0A90933D0A8BE08093000A8091CC
:1018C000E50581608093E5058091E5058260809360
:1018D000E505E0E8FAE037E02FEF90E885E03183B6
:1018E0002487958780837096E03C4AE0F407B9F737
:1018F00080E094E08093CF2A9093D02A8091CF2AE1
:101900009091D02A2FEF30E0B9010E943C196093EA
:10191000CD2A7093CE2A8091CF2A9091D02AE8EEDA
:10192000F3E0BF010E943C196093C52A7093C62A58
:101930008091CF2A9091D02ABF010E943C198093B8
:10194000C32A9093C42A2093BC0A3093BD0A809185
:10195000B50A81608093B50A84E08093B00A8091D3
:10196000B00A81608093B00A78948091400080939F
:101970004C2980934000A8958091010180FDFCCF07
:1019800088ED99E084BF909300018091010180FD72
:10199000FCCF70E060E082E00E94730370E060E0E2
:1019A00083E00E94730370E060E084E00E947303B0
:1019B00070E060E08EE00E94730340E052EC61E072
:1019C00070E085ED9AE20E940F0A7E015CE3E50E6D
:1019D000F11C8E010F5F1F4FD12CC12CE296EFAE90
:1019E000E297E396FFAEE397AE960FAFAE97AF9652
:1019F0001FAFAF97C6010E942019D7018D937D01BB
:101A0000C60148960E942019F80181938F01FFEFCB
:101A1000CF1ADF0A28E1C216D10461F789E0E6E7B0
:101A2000F9E7DE01A35ABF4F01900D928A95E1F7C5
:101A300089E0E6E7F9E7DE01AC5ABF4F01900D926D
:101A40008A95E1F7BE01635A7F4FE2968FADE29728
:101A5000E3969FADE3970E94470A182FBE016C5A88
:101A60007F4FAE968FADAE97AF969FADAF970E946A
:101A7000470A082F11110C94C51881114AC3F12C83
:101A8000E12C33243394C7010E9420198F3F09F0C1
:101A9000312C3FEFE31AF30A40E3E416F10499F71F
:101AA000002309F445C36090932B7090942BE09031
:101AB000952BF090962B80914C2983FD04C081FFDB
:101AC00004C080FD02C06894E0F80E948C088093F6
:101AD000C22A91E08927809307280E946B046093B3
:101AE000BE2A7093BF2A8093C02A9093C12A84E0B3
:101AF0000E94190455245394892B09F4512C83E036
:101B00000E9419046C0111E0892B09F410E082E0B5
:101B10000E9419045C0144244394892B09F4412C4C
:101B20000111302E0E946B046093CC287093CD2855
:101B30008093CE289093CF286093202870932128FB
:101B40008093222890932328609208287092092875
:101B5000332041F02FEF260D2A3020F42FEF270DF0
:101B60002A3040F024E0209308282AE02093092816
:101B70006894E5F8E894E1F852E0F522E092122842
:101B8000F09213282091092820930F284092A8282A
:101B90004092A7286093A9287093AA288093AB2825
:101BA0009093AC281093AE281093AD286093AF2883
:101BB0007093B0288093B1289093B2285092B428A3
:101BC0005092B3286093B5287093B6288093B728B5
:101BD0009093B8286093D0287093D1288093D2280E
:101BE0009093D3285092BC281195AB2821F012E095
:101BF000CD2809F411E01093C6280E94D2000E945B
:101C00004B010E946B0421E02093992A6093952A4E
:101C10007093962A8093972A9093982AA89511E01A
:101C20000E946B044B015C018091C22A811187C222
:101C30008091BE2A9091BF2AA091C02AB091C12A5A
:101C400014012501281A390A4A0A5B0AD201C10186
:101C5000883E9340A105B105F0F08092BE2A909293
:101C6000BF2AA092C02AB092C12A0E948C088093F9
:101C7000C22A882381F01093BD2A0E946B046093CE
:101C8000B92A7093BA2A8093BB2A9093BC2A809178
:101C9000C22A811154C2109307281092BD2A1092B3
:101CA000C22A80910728882309F4E1C304E0E02ECA
:101CB000F12CB1EBCB2EBAE2DB2E8BEA9AE2A8EA4A
:101CC000BAE244EB5AE260E070E0F60121916F0164
:101CD000222369F0FC01208131812852334201E046
:101CE00029353B4108F400E0702B2C91622B0296C1
:101CF00011964C155D0549F7772309F4BBC3809114
:101D0000A72A81110AC01093A72A8092A32A909231
:101D1000A42AA092A52AB092A62A8091A32A9091E3
:101D2000A42AA091A52AB091A62A14012501281A57
:101D3000390A4A0A5B0AD201C101883C9105A10512
:101D4000B10510F06894E0F8662309F496C3809119
:101D5000A22A81110AC01093A22A80929E2A9092F0
:101D60009F2AA092A02AB092A12A80919E2A9091A7
:101D70009F2AA091A02AB091A12A24013501481AD6
:101D8000590A6A0A7B0AD301C20184369105A1056A
:101D9000B10510F06894E3F8609012287090132851
:101DA000E1966EAE7FAEE19783E0809306061093D6
:101DB000080680910B0680FFFCCF9FB7F8948091B6
:101DC0001006409111069FBF542F482F809147293C
:101DD00090E0FC01EE0FFF1FE95CF64D6081718120
:101DE000209048293090492940904A2950904B2909
:101DF000261A370A4108510840835183240E351EA4
:101E0000411C511CA201910120934829309349297A
:101E100040934A2950934B290196877099278093C4
:101E2000472980913629883018F48F5F80933629AE
:101E3000A8E8B3E10E94B4192B013C012091362996
:101E400030E0AFEFB3E00E94A5199B01AC01C301E4
:101E5000B2010E946419C90120934D2930934E2983
:101E6000B9016E557140AC966EAF7FAFAC9771E023
:101E7000AD967FAFAD97AC962EAC3FACAC976FE212
:101E8000261669E0360618F0AD961FAEAD97D12C38
:101E9000C12C8C3D71E09707A0F070E1C72E77E26E
:101EA000D72E8834994068F42B5D3140A0E1B7E229
:101EB0000E94A5192DE637E040E050E00E94641929
:101EC000690184E00E94190477247394892B09F432
:101ED000712C83E00E94190466246394892B09F411
:101EE000612C82E00E94190401E0892B09F400E0D2
:101EF0000E946B04609320287093212880932228ED
:101F000090932328E091C7283E2F3D7F3130D9F4AC
:101F10002090C8283090C9284090CA285090CB28DB
:101F20009B01AC01221933094409550919012A0101
:101F300038EE231633E033064104510420F021E04B
:101F40002E0F2093C72810921F2810921E28AD969E
:101F50002FACAD972092B928C092BA28D092BB2856
:101F6000E7EAF8E2A0E03081031729F000836283FA
:101F70007383848395833181031791F022813381A8
:101F8000448155811B012C01221A330A440A550A47
:101F9000A2019101293131054105510508F0018364
:101FA000AF5F3696A33009F06BC22090A828AD969B
:101FB0002FAEAD973090AE28E8963FAEE8970091EF
:101FC000B4287090BC28002309F460C2711062C26A
:101FD0006093D0287093D1288093D2289093D328EF
:101FE00066246394AD962FACAD97222009F46BC2A2
:101FF000E8963FACE897332009F465C22091C028E9
:1020000021110AC01093C0286093DC287093DD284A
:102010008093DE289093DF282091DC283091DD2802
:102020004091DE285091DF28621B730B840B950BC7
:10203000643671058105910510F06894E6F8EFEEBD
:10204000F9E723E03AE7828193814081518132961A
:102050004817590710F00C94D7188131974210F0A7
:102060000C94D7182E173F0771F7AC962EAC3FACE7
:10207000AC972FE2221629E0320608F027C233E39C
:10208000C316D10408F022C2809120289091212803
:10209000A0912228B09123282091C22821110AC0A2
:1020A0001093C2288093E4289093E528A093E62813
:1020B000B093E7284091E4285091E5286091E62804
:1020C0007091E728841B950BA60BB70B21E0883C89
:1020D0009105A105B10508F420E02093C3281092D2
:1020E000C12840C268968CAD9DADAEADBFAD6897BE
:1020F000A1964CAD5DAD6EAD7FADA197841B950BE8
:10210000A60BB70B181619061A061B0614F00C942A
:10211000C81889E0FE01EC5AFF4FAFE8BBE201901E
:102120000D928A95E1F781E08093732B01E0A7CCB3
:102130005AE0752E64E0662EF12CE12CBCCC809127
:10214000B52A9091B62AA091B72AB091B82AB501C4
:10215000A401481B590B6A0B7B0BDB01CA018436B7
:102160009105A105B10590F18092B52A9092B62A09
:10217000A092B72AB092B82A2090B42AAD962FAE7A
:10218000AD9744244394512C66964EAE5FAE66974D
:10219000022D000F41E6E42EE00EAE0148595F4FDC
:1021A0006BE48E2D0E94210881114BC000E0AD969A
:1021B0002FACAD97822D90E0019663E070E00E9415
:1021C00050198093B42A002309F465CD8091072823
:1021D000882309F44CC18091BD2A81110AC0109353
:1021E000BD2A8092B92A9092BA2AA092BB2AB092B4
:1021F000BC2A8091B92A9091BA2AA091BB2AB091A9
:10220000BC2A24013501481A590A6A0A7B0AD301FB
:10221000C201843F9140A105B10508F447CD8091EA
:10222000B12A882309F442CD8091B22A882309F487
:102230003DCD8091B32A882309F438CD1092072828
:1022400030CDAE014A595F4F61E08E2D0E942108CA
:10225000882309F4ABCFAE01435A5F4F67E08E2D60
:102260000E942108882309F4A1CFAD962FADAD9728
:10227000223008F4F0C020E6222E200EAB962FAEBE
:10228000AB970E59E0960FAFE097AB96FFACAB97CC
:1022900090EA392EF30C88E0EFE7F9E7AE96AFADA0
:1022A000AE97AF96BFADAF9701900D928A95E1F7CB
:1022B00002E0E2962FADE297E3963FADE397AE964C
:1022C0004FADAE97AF965FADAF97AB966FADAB9797
:1022D0008CEC9BE20E945507082F882309F467CFF6
:1022E00022964CAC5DAC6EAC7FAC2297EB964CAEBC
:1022F0005DAE6EAE7FAEEB972F2C312C0E946B043F
:10230000AB01BC0189E0582E529CF001539CF00DAA
:102310001124E050F74DC080D180E280F3808481A9
:102320009581A681B781E7968CAF9DAFAEAFBFAF69
:10233000E7972085222359F1EB964CAC5DAC6EAC4F
:102340007FACEB974C185D086E087F087301620143
:10235000C114D104E104F104C9F0F2E34F2E512C71
:10236000612C712C481A590A6A0A7B0AD301C201EE
:10237000840F951FA61FB71F880F991FAA1FBB1F89
:1023800001E08C159D05AE05BF0508F400E0E9E00D
:102390005E2E529CF001539CF00D1124E050F74D3D
:1023A000EB96CCACDDACEEACFFACEB97C082D1824F
:1023B000E282F38244835583668377831087002308
:1023C00009F4F4CEAB962FADAB972F5FAB962FAF42
:1023D000AB97E0962FACE097221257CFAA962EAD7E
:1023E0003FADAA97C901805A9F408D3D954008F0A6
:1023F000DDCEAD962FACAD97E22DF0E0CF01880F8A
:10240000991FAC014555554D6A01A896AEADBFADBB
:10241000A8970E94A5199C0144275527ABE0B0E07E
:102420000E94B419D6016D937C936F968EAD9FADCB
:102430006F97892BD1F081E066962EAD3FAD669700
:10244000232B09F080E0DF01A855B54D8C93EF54A4
:10245000F54D1083ACCEAE014C5A5F4F65E08E2D2A
:102460000E942108811107CFA1CE802FECCFF12C43
:10247000E12C1FCC1092A72A67CC1092A22A8CCCF8
:10248000062DA13009F46FCD072D6DCD711003C05D
:10249000612CA8CD712C2091D0283091D128409169
:1024A000D2285091D3281B012C01221A330A440A46
:1024B000550A20E3221625E732064104510440F371
:1024C0006894F1F8E5CF1092C028B9CD1092C228D7
:1024D0001092C328AC962EAC3FACAC972FE22216DC
:1024E00029E0320608F4FBCD809120289091212824
:1024F000A0912228B09123282091C12821110AC03F
:102500001093C1288093E0289093E128A093E228BB
:10251000B093E3284091CC285091CD286091CE28EB
:102520007091CF281C012D01241A350A460A570A3A
:1025300028EE221623E032064104510498F040911F
:10254000E0285091E1286091E2287091E328841BF3
:10255000950BA60BB70B8A3F9105A105B10510F0AD
:102560006894E7F88091C32881111092C5280E94D1
:10257000AD002091B9282223E9F062E370E00097D2
:1025800011F06BE470E02091BA283091BB28A901CA
:10259000481B590B8217930718F0AC01421B530BD1
:1025A0006417750708F48FC01092C4288093F4282C
:1025B0009093F5288091C528882311F06894E4F859
:1025C000C0901028D0901128209012283090132805
:1025D000CE14DF0439F4C101809590958E219F219E
:1025E000892B39F1E0921028F0921128C701822935
:1025F000932980931228909313280E94D200C2201E
:10260000D320C094D094EC20FD20EF2891F01092BC
:102610000B2810920A288091092880930F28109285
:102620000C2810930D281092BF281092A628109302
:10263000BD28AD962FACAD97E8963FACE897222029
:1026400009F4ACC03110ACC033243394662009F4D3
:10265000CEC240912028509121286091222870916B
:1026600023284093D4285093D5286093D62870937C
:10267000D7281092BD288091122890911328892B79
:1026800009F491C082E08093A62881E0209110286F
:1026900030911128232B09F080E08093BE2800237D
:1026A00009F4A3C08091D4289091D528A091D62870
:1026B000B091D7286A017B01C81AD90AEA0AFB0A35
:1026C000D701C601B8C240912028509121286091BD
:1026D000222870912328E091C428E11116C010939C
:1026E000C4284093EC285093ED286093EE28709313
:1026F000EF284093E8285093E9286093EA287093E4
:10270000EB282093F6283093F7288093F4289093B1
:10271000F5288091F6289091F72828173907C8F5F1
:10272000821B930B8436910560F02093F62830933A
:10273000F7284093EC285093ED286093EE2870938F
:10274000EF282090E8283090E9284090EA2850901F
:10275000EB28DB01CA0182199309A409B50988395C
:102760009A43A105B10590F48091EC289091ED2851
:10277000A091EE28B091EF28481B590B6A0B7B0BF8
:10278000403A5F406105710508F414CF1093C528E5
:1027900011CFD901A81BB90BCD01C4CF319456CFAD
:1027A00062E0362E53CF80910C28811109C010921F
:1027B000A6281093BD280023C1F07110C9C217C00C
:1027C00090910A28923019F410920A28F0CF1093B1
:1027D000A628913031F480910B28811102C080919C
:1027E000C3288093BE28011117C5711003C28091C0
:1027F000122890911328892B41F5011126C0809150
:102800000C28882311F18091C6288315F1F061E02E
:10281000361619F07FEF371218C080910A288230DF
:10282000A1F0EFE0F8E2813011F0E8E0F8E281E0B9
:102830003812D9C280818A3010F48F5F80838091F2
:102840000A28811102C010931E283092C6280093D6
:10285000BC288091122890911328892B01F5809132
:102860000D288823E1F08091C3288823C1F080914E
:102870000E28882309F49FC48091C728843079F4F6
:1028800001110BC0AD962FACAD97211006C0E89694
:102890003FACE897332009F490C41092BF280E94FF
:1028A0004B010E94AD007C01809105289091062883
:1028B000E816F906A9F480919A2A90919B2AA09192
:1028C0009C2AB0919D2A24013501481A590A6A0AA6
:1028D0007B0AD301C201843F9140A105B105D0F12B
:1028E00080929A2A90929B2AA0929C2AB0929D2A2A
:1028F0008091C22A882309F47FC231E1E31637E2CE
:10290000F30608F07CC29701ACECBCEC0E94A51960
:1029100068577C4E8F4F9F4F20E137E240E050E0F8
:102920000E9464192D5C3C4C82E089832A833B839E
:1029300023E0AE014F5F5F4F68E58091CC2B909113
:10294000CD2B0E940E07882309F459C2E092052876
:10295000F09206280091C22A0023B9F10E946B046C
:102960002B013C012AE93BE2A4E1B8E258E9252E1B
:102970005BE2352EF12CE12CAB96EFAEAB97F90173
:1029800091919F016D018D91981709F46DC2992362
:1029900009F43CC220E040E06E2D8091982B90918C
:1029A000992B0E945308882309F48CC2F701E8563A
:1029B000F44D1282F701EE0FFF1FEE0FFF1FEC55D3
:1029C000F44D408251826282738280911E28882356
:1029D00081F00E946B041093992A6053784F8F4FB7
:1029E0009F4F6093952A7093962A8093972A90938D
:1029F000982A8091122890911328E1962EAC3FAC32
:102A0000E1972816390621F480911F28882361F068
:102A10000E946B041093992A6093952A7093962ACA
:102A20008093972A9093982A0E946B046B017C01F3
:102A300080918E2B8823E1F08091742B28E1829F76
:102A4000C00111242091752B60E0222351F0283120
:102A500008F03FC230E0F901EF58F44D6581820F74
:102A6000931F0E94BD0A8091752B8F5F8093752BF9
:102A70008091992A882309F47FC080918E2B81113F
:102A80007BC08091952A9091962AA091972AB09127
:102A9000982AC81AD90AEA0AFB0AF7FC6DC0009105
:102AA0000828B09109288091122890911328A091AC
:102AB0004C2940918F2B5091902B6091912B7091CC
:102AC000922B2091932B021315C02091942BB213BB
:102AD00011C02091952B3091962B8217930751F4BA
:102AE0002091972BA21306C0411551056105710570
:102AF00009F040C04F5F5F4F6F4F7F4FE6E7FBE24B
:102B00002EE83BE211922E173F07E1F725EA2093CA
:102B1000762B1093772B22E52093782B27E52093B3
:102B2000792B40937A2B50937B2B60937C2B709363
:102B30007D2B00937E2BB0937F2B8093802B9093E3
:102B4000812BA093822B0E94180A8093842B909350
:102B5000852B87E79BE20E945B0380938C2B9093ED
:102B60008D2B8091732B81278093742B1092752B62
:102B700010938E2B1092992AC090932AD090942A69
:102B8000A090912AB090922ACA14DB0408F0B1C137
:102B900085ED9AE20E94A40418161906FCF495012A
:102BA0002C193D092131310510F020E130E07C0184
:102BB0002817390708F47901B6016F56764DA70139
:102BC00085ED9AE20E9477048091932A9091942A4D
:102BD000E80EF91EE092932AF092942AA89580E0DC
:102BE00090E0892B09F41CC80E94000018C800233B
:102BF00009F4FBCD8091BD288111DFCD40912028C3
:102C00005091212860912228709123288091D42806
:102C10009091D528A091D628B091D7286A017B0140
:102C2000C81AD90AEA0AFB0AD701C6012091A628C8
:102C3000223009F092C02091102830911128232BC6
:102C400011F01092BE282091BE28222309F4B5CDA0
:102C5000883B9B40A105B10508F4AFCD80911228B7
:102C600085FF06C084E0809308288AE080930928C5
:102C7000109212281092132810920B2810920A28F2
:102C800010930D2810920E2810920C281092BF2835
:102C90001093BD281092A62810931F2810931E2869
:102CA0004093F0285093F1286093F2287093F32812
:102CB0000E94D200772009F49ACD8091BD2881111D
:102CC00047C08091A628813009F042C0C0902028DA
:102CD000D0902128E0902228F09023288091D428B9
:102CE0009091D528A091D628B091D728B701A601F8
:102CF000481B590B6A0B7B0BDB01CA01843F9140D7
:102D0000A105B10528F580910A28811166C060905F
:102D10000B28662089F0709008288091B9288823B4
:102D200009F455C08091BA289091BB288093FC2863
:102D30009093FD287092FE28862D812780930B2882
:102D4000C092F028D092F128E092F228F092F32875
:102D50001092A6281093BD284ACD213009F02DCD20
:102D60002091BE28222309F468C28C3D9540A1051C
:102D7000B10508F462C280910A28811122C0109323
:102D80000A286091092860930F2880910B288823D6
:102D900099F08091B928882379F08091BA28909190
:102DA000BB288093FA289093FB288093F82890936F
:102DB000F9281093BD2801CD809108280E947B003E
:102DC000F0CF0E94120182E080930A28F2CF609136
:102DD0000928872D0E947B00A9CF813009F0B8CF48
:102DE0000E941201B5CF9FEF391229CD8081823028
:102DF00008F425CD815022CDF12CE12C84CD109307
:102E000007281092C22A1092BD2AA4CDF101848411
:102E10009584A684B784B301A201481959096A09A7
:102E20007B094A015B0152E085169104A104B104BB
:102E3000D0F021E0823009F020E041E0813009F05B
:102E400040E0AB966FADAB978091982B9091992B0A
:102E50000E9453088823B1F1F701E856F44DD601DA
:102E60008C918283B2CD00E0EFEFEE1AFE0AF4E01F
:102E70002F0E311C4AE0E416F10409F07DCD002349
:102E800009F4A3CD0E946B0420910E28222309F49B
:102E90009CCD2091122830911328232B09F095CD39
:102EA0002091C728322F3D7F09F08FCD2F5F2093CF
:102EB000C7286093C8287093C9288093CA28909324
:102EC000CB2883CD109307281092C22A1092BD2AD6
:102ED0007CCD65EA0E94BD0A6FE87BE286E79BE253
:102EE0000E94470A8091742B8093732B10928E2B33
:102EF000BACD8091042887FD5DC0282F880F330B41
:102F00004091A42850E02417350724F08FEF8093D8
:102F1000042864CE8091A52890E04096841B950BF0
:102F2000820F931F60E170E00E9450199927DC0125
:102F300023E0AA0FBB1F2A95E1F7A85FB74D939630
:102F40002C9193972F9392962C9192972F9333E0F5
:102F5000880F991F3A95E1F7FC01E85DF74D8181F3
:102F60008F9380818F93FD017C9683818F938281E3
:102F70008F9381818F935C968C918F938FE19AE7E9
:102F80009F938F931F931F9281E999E29F938F9351
:102F90000E94D6198093912A9093922A1092932A94
:102FA0001092942A809104288F5F80930428CDBFCB
:102FB000DEBF14CE08E085ED9AE20E94D504892B8D
:102FC00009F40CCE85ED9AE20E94B3048D3009F429
:102FD000D5C0E09190298A3009F0C6C0F0E0E058F1
:102FE000F64D108280917F298111A9C06DE37AE7A7
:102FF00080E899E20E94CD19892B09F05AC04090CF
:103000001228309013286090102850901128A0901A
:10301000AF2A7090B02AC090AD2AB090AE2AE0904E
:10302000AB2AD090AC2A00914D29F0904E290E94F5
:10303000AD0020910C281F922F933F924F925F92E8
:103040006F927F92AF92BF92CF92DF92EF92FF92F8
:103050000F939F938F93809109281F928F93809154
:1030600008281F928F9380910A281F928F93809136
:103070004C291F928F9384E49AE79F938F931F9319
:103080001F9281E999E29F938F930E94D619CDBF39
:10309000DEBF8F3F910509F048F48093912A909309
:1030A000922A1092932A1092942A0DC08FEF90E0EA
:1030B000F4CF63EB7AE780E899E20E94CD19892B7F
:1030C00039F4109204281092902910927F2986CD0D
:1030D00067EB7AE780E899E20E94CD19892B79F5B0
:1030E00087E799E29F938F938FE699E29F938F935F
:1030F00087E699E29F938F938FE599E29F938F9351
:1031000087E599E29F938F938FE499E29F938F9342
:103110008EEB9AE79F938F931F931F9281E999E219
:103120009F938F930E94D6198093912A9093922A0D
:103130001092932A1092942ACDBFDEBFC4CF8BE3A6
:10314000ECEDFAE7DE01119601900D928A95E1F718
:103150008BE3FE013196A1E9B9E201900D928A95C7
:10316000E1F78AE390E099CFEF3060F491E09E0FB1
:1031700090939029F0E0E058F64D8083015009F0DB
:103180001ACF2CCD10937F29F9CF81110C94721096
:1031900089E0FE01E35AFF4FAFE8BBE201900D92D8
:1031A0008A95E1F71092732B012F0C943F0D6894D0
:1031B000E5F80C943510011170CB80912028909186
:1031C0002128A0912228B09123282091BF282111E5
:1031D0000AC01093BF288093D8289093D928A09331
:1031E000DA28B093DB284091D8285091D9286091F3
:1031F000DA287091DB28841B950BA60BB70B84365D
:103200009105A105B10508F44ACB10920D28109242
:103210000E2810930C2843CB8091D4289091D52868
:10322000A091D628B091D7286A017B01C81AD90A83
:10323000EA0AFB0AD701C60193CD711047CDD7CA60
:1032400003D0808199270895FC01E050FC4E089539
:10325000262FAF93BF93E0E0F0E1328131FDFDCF47
:10326000DC01A050BC4E2C932DE924BF23E0208329
:103270000196BF91AF910895AA1BBB1B51E107C0F6
:10328000AA1FBB1FA617B70710F0A61BB70B881FF6
:10329000991F5A95A9F780959095BC01CD01089585
:1032A00097FB072E16F4009407D077FD09D00E94F3
:1032B0003C1907FC05D03EF4909581959F4F0895E9
:1032C000709561957F4F0895A1E21A2EAA1BBB1B32
:1032D000FD010DC0AA1FBB1FEE1FFF1FA217B307E2
:1032E000E407F50720F0A21BB30BE40BF50B661FF8
:1032F000771F881F991F1A9469F7609570958095BC
:1033000090959B01AC01BD01CF010895052E97FB5F
:103310001EF400940E949D1957FD07D00E94641965
:1033200007FC03D04EF40C949D19509540953095B0
:1033300021953F4F4F4F5F4F089590958095709521
:1033400061957F4F8F4F9F4F0895A29FB001B39F0C
:10335000C001A39F700D811D1124911DB29F700D9E
:10336000811D1124911D08950E94A519A59F900DFE
:10337000B49F900DA49F800D911D11240895B7FF57
:103380000C94B4190E94B419821B930B0895EE0F8C
:10339000FF1F0590F491E02D0994FB01DC018D9154
:1033A000019080190110D9F3990B0895AEE0B0E0B7
:1033B000ECEDF9E10C94921C0D891E898F89988D92
:1033C00026E02C8309831A8397FF02C080E090E8EF
:1033D00001978D839E83AE01455E5F4F698D7A8D27
:1033E000CE0101960E94061A4D815E8157FD0AC0EA
:1033F0002F813885421753070CF49A01020F131FCF
:10340000F80110822E96E4E00C94AB1CABE0B0E027
:10341000ECE0FAE10C94841C7C013B018A01FC0184
:1034200016821782838181FFC8C1CE0101965C019B
:10343000F7019381F30193FD859193FF81913F0102
:10344000882309F453C1853239F493FD859193FFA4
:1034500081913F01853229F4B70190E00E94F61B6B
:10346000E7CF912C212C312CFFE1F31538F08B3272
:1034700011F190F4803209F1833229F137FC3CC01C
:1034800020ED280F2A3050F536FE20C08AE0989EA5
:10349000200D1124922E06C08D3291F0803371F7E9
:1034A000689430F8F30193FD859193FF81913F017A
:1034B0008111DACF21C0689431F8689432F8F2CFE4
:1034C000689433F8EFCF689434F8ECCFEAE02E9E9E
:1034D000200D1124222E689435F8E4CF8E3229F481
:1034E00036FC04C1689436F8DDCF8C3619F4689444
:1034F00037F8D8CF8836B1F2982F9F7D9554933006
:10350000E0F08336A1F18337C1F1833509F063C060
:103510002801F2E04F0E511CF801C080D180692DC6
:1035200070E036FC02C06FEF7FEFC6010E94E01B27
:103530004C01689437F882010AC00C5F1F4FFFE30B
:10354000F98388248394912C6501E89437F833FE3D
:103550002DC0522C8114910471F5552009F468CFC7
:10356000B70180E290E00E94F61B5A94F6CFF80172
:10357000808189830E5F1F4FE4CF2801F2E04F0E58
:10358000511CF801C080D180692D70E036FC02C06A
:103590006FEF7FEFC6010E94EB1B4C018201D5CF7C
:1035A000B70180E290E00E94F61B2A9428141904C7
:1035B00009F0B0F7CECFF60137FC859137FE819147
:1035C0006F01B70190E00E94F61B51105A94F1E090
:1035D0008F1A9108BFCF843619F0893609F077C069
:1035E000F80137FE6BC060817181828193810C5F2D
:1035F0001F4FF32DFF763F2E97FF09C090958095C2
:10360000709561957F4F8F4F9F4F689437F82AE0F0
:1036100030E0A5010E94261CC82ECA188C2C432C11
:1036200036FE0CC0E89440F8C91440F434FE05C0DE
:1036300032FC03C0F32DFE7E4F2E892C44FE95C034
:10364000FE01EC0DF11D8081803309F087C0242D2F
:10365000297E422E842D8870582E43FC95C040FE52
:103660008FC09C2C821418F42C0C922C981844FEB9
:1036700091C0B70180E390E00E94F61B42FE09C0B2
:1036800088E790E041FE02C088E590E0B7010E9423
:10369000F61BC91408F48AC0CA94D12C9FEFC91A2A
:1036A000D90ACA0CDB1CF60182916F01B70190E0C8
:1036B0000E94F61BAC14BD04B1F74FCF608171813D
:1036C000072E000C880B990B0E5F1F4F92CFD32C47
:1036D000E894D4F82AE030E0853739F1232D297FAA
:1036E000D22E8F3601F148F48835A9F0F701868192
:1036F00097812B96E2E10C949D1C803749F0883726
:10370000A9F7D4FE02C06894D2F820E130E00DC0E1
:103710006894D4F8F6CF34FE03C0822F8660D82E8A
:1037200020E132E002C028E030E0F801D7FE0FC00F
:1037300060817181828193810C5F1F4FA5010E947E
:10374000261CC82ECA183D2CE89437F867CF608134
:10375000718190E080E00E5F1F4FF0CF42FC02C00D
:10376000839478CF8394839475CF842D867809F4DD
:1037700071CFF6CFB70180E290E00E94F61B8394F0
:103780008214C0F3512C73CF522C5818821408F4B1
:103790006ECFF8CF842D867809F47BCF8BE241FE83
:1037A00080E247FC8DE2B70190E071CFB70180E382
:1037B00090E00E94F61B9A946CCF8FEF9FEF99CF09
:1037C000FC010590615070400110D8F780959095EC
:1037D0008E0F9F1F0895FC016150704001900110F1
:1037E000D8F7809590958E0F9F1F08950F931F9384
:1037F000CF93DF93182F092FEB018B8181FD09C037
:103800001FEF0FEF812F902FDF91CF911F910F911D
:10381000089582FF14C02E813F818C819D812817DD
:1038200039073CF4E881F981CF01019688839983B7
:1038300010838E819F8101968E839F83E3CFE885DD
:10384000F985812F0995892BA1F3DACFFA01AA27EF
:10385000283051F1203181F1E8946F936E7F6E5FD3
:103860007F4F8F4F9F4FAF4FB1E03ED0B4E03CD081
:10387000670F781F891F9A1FA11D680F791F8A1F64
:10388000911DA11D6A0F711D811D911DA11D20D0CB
:1038900009F468943F912AE0269F11243019305D85
:1038A0003193DEF6CF010895462F4770405D419376
:1038B000B3E00FD0C9F7F6CF462F4F70405D4A33C3
:1038C00018F0495D31FD4052419302D0A9F7EACF8B
:1038D000B4E0A6959795879577956795BA95C9F7BA
:1038E00000976105710508959B01AC010A2E0694AD
:1038F0005795479537952795BA95C9F7620F731F66
:10390000841F951FA01D08952F923F924F925F92A2
:103910006F927F928F929F92AF92BF92CF92DF92DF
:10392000EF92FF920F931F93CF93DF93CDB7DEB744
:10393000CA1BDB0BCDBFDEBF09942A8839884888B3
:103940005F846E847D848C849B84AA84B984C884BB
:10395000DF80EE80FD800C811B81AA81B981CE0FB2
:0E396000D11DCDBFDEBFED010895F894FFCF5D
:10396E00565555555555555500000000040A000092
:10397E000081434455555555550000000300010282
:10398E000000010100000000000000000000000027
:10399E0000000005040005060204010300010001F9
:1039AE0002030201000203040502030504020200E1
:1039BE0005020105000401010404040303030305C9
:1039CE00050303000001012010012040041002082D
:1039DE000102010204080402010408102004082058
:1039EE00100000E803D007B80BA00F88137017580B
:1039FE001B401F2823102700000000BD057704A4DC
:103A0E00040E06D504B304C7040F0AFA04E1043009
:103A1E00066D733D256C75206163746976653D2571
:103A2E0075206C6174636865643D25750D0A0073BD
:103A3E0074617475730076312E302E302D62656E82
:103A4E0063682072657365743D2575206D6F6465BE
:103A5E003D2575206C6576656C3D2575206361701E
:103A6E003D2575207461726765743D25752061640E
:103A7E00635F6D563D25752076696E3D25752F2544
:103A8E00752F2575206163746976653D2575206CEB
:103A9E006174636865643D25752072656164793D66
:103AAE0025750D0A006C6F6700626F61726473009A
:103ABE00307836302E2E36353A2025732025732059
:103ACE0025732025732025732025730D0A00436F5F
:103ADE006D6D616E64733A207374617475732C200E
:103AEE006C6F672C20626F617264732C2068656C3A
:103AFE00702E204661756C74207265736574207526
:093B0E00736573204A2E0D0A00B4
:103B17000024F400FFFFFF01040A00000001010A6E
:103B2700000000000000000000000000000000008E
:103B3700000000000000000000000000000000007E
:103B4700000000000000000000000000000000006E
:103B5700000000000000000000000000000000005E
:103B6700000000000000000000000000000000004E
:103B7700000000000000000000000000000000003E
:103B8700000000000000000000000000000000002E
:103B9700000000000000000000000000000000001E
:103BA700000000000000000000000000000000000E
:103BB70000000000000000000000000000000000FE
:103BC70000000000000000000000000000010000ED
:103BD70000000000000000000000000000000000DE
:103BE70000000000000000000000000000000000CE
:103BF70000000000000000000000000000000000BE
:103C070000000000FFFF00000000000000000000AF
:00000001FF
